:020000040800F2
:1000000000000520D1710108E54A0108E74A01080E
:10001000E94A0108EB4A0108ED4A01080000000026
:10002000000000000000000000000000EF4A01088E
:10003000F14A010800000000F34A0108F54A0108EE
:100040002172010821720108217201082172010840
:100050002172010821720108FD4A0108217201087C
:10006000214B010821720108217201082172010847
:100070002172010821720108217201082172010810
:100080002172010821720108217201082172010800
:1000900021720108217201082172010821720108F0
:1000A0002D4B0108217201082172010821720108FB
:1000B0002172010821720108A54B01082172010873
:1000C00021720108217201082172010821720108C0
:1000D000E54B010821720108217201082172010813
:1000E000F94B0108217201082172010821720108EF
:1000F000E5500108217201082172010821720108EE
:1001000021720108217201082151010821720108A0
:100110002172010821720108D95101080552010814
:10012000217201082172010821720108217201085F
:100130002D52010821720108217201082172010863
:10014000217201082172010821720108217201083F
:10015000217201082172010821720108217201082F
:10016000217201082172010821720108217201081F
:1001700021720108217201082172010800000000AB
:1001800021720108217201082172010821720108FF
:1001900021720108217201082172010821720108EF
:1001A00021720108217201082172010821720108DF
:1001B00021720108217201082172010821720108CF
:0801C0002172010821720108FF
:1001D00010B5054C237833B9044B13B10448AFF381
:1001E00000800123237010BD2001002000000000CA
:1001F000307B010808B5034B1BB103490348AFF33B
:10020000008008BD0000000024010020307B0108B0
:1002100010F8012B11F8013B012A28BF9A42F7D0B0
:10022000D01A70470000000000000000000000002D
:1002300001F0FF01102A2BDB10F0070F08D010F897
:10024000013B013A8B422DD010F0070F42B3F6D19B
:10025000F0B441EA012141EA014122F007047FF0B4
:1002600000070023F0E80256083C85EA010586EA0B
:10027000010685FA47F5A3FA87F586FA47F6A5FA47
:1002800087F68EB9EED1F0BC01F0FF0102F0070253
:1002900032B110F8013B013A83EA010313B1F8D1FE
:1002A0000020704701387047002D06BF35460338DF
:1002B000073815F0010F07D1013015F4807F02BF18
:1002C000013015F4C03F0130F0BC0138704700BF69
:1002D00081F0004102E000BF83F0004330B54FEAF7
:1002E00041044FEA430594EA050F08BF90EA020F64
:1002F0001FBF54EA000C55EA020C7FEA645C7FEAF7
:10030000655C00F0E2804FEA5454D4EB5555B8BF19
:100310006D420CDD2C4480EA020281EA030382EA8A
:10032000000083EA010180EA020281EA0303362D1C
:1003300088BF30BD11F0004F4FEA01314FF4801CEF
:100340004CEA113102D0404261EB410113F0004F01
:100350004FEA03334CEA133302D0524263EB4303B8
:1003600094EA050F00F0A780A4F10104D5F1200E56
:100370000DDB02FA0EFC22FA05F2801841F10001B1
:1003800003FA0EF2801843FA05F359410EE0A5F185
:1003900020050EF1200E012A03FA0EFC28BF4CF0B6
:1003A000020C43FA05F3C01851EBE37101F000456C
:1003B00007D54FF0000EDCF1000C7EEB00006EEB79
:1003C0000101B1F5801F1BD3B1F5001F0CD3490803
:1003D0005FEA30004FEA3C0C04F101044FEA44525A
:1003E00012F5800F80F09A80BCF1004F08BF5FEAE1
:1003F000500C50F1000041EB045141EA050130BDC1
:100400005FEA4C0C404141EB010111F4801FA4F163
:100410000104E9D191F0000F04BF01460020B1FAB8
:1004200081F308BF2033A3F10B03B3F120020CDAF0
:100430000C3208DD02F1140CC2F10C0201FA0CF0CE
:1004400021FA02F10CE002F11402D8BFC2F1200C33
:1004500001FA02F120FA0CFCDCBF41EA0C019040E9
:10046000E41AA2BF01EB0451294330BD6FEA040432
:100470001F3C1CDA0C340EDC04F11404C4F120021D
:1004800020FA04F001FA02F340EA030021FA04F32F
:1004900045EA030130BDC4F10C04C4F1200220FA86
:1004A00002F001FA04F340EA0300294630BD21FAC4
:1004B00004F0294630BD94F0000F83F4801306BF8A
:1004C00081F480110134013D4EE77FEA645C18BF7E
:1004D0007FEA655C29D094EA050F08BF90EA020F15
:1004E00005D054EA000C04BF1946104630BD91EA0D
:1004F000030F1EBF0021002030BD5FEA545C05D110
:100500004000494128BF41F0004130BD14F580044E
:100510003CBF01F5801130BD01F0004545F0FE41C2
:1005200041F470014FF0000030BD7FEA645C1ABFF7
:10053000194610467FEA655C1CBF0B46024650EA2E
:10054000013406BF52EA033591EA030F41F400215A
:1005500030BD00BF90F0000F04BF0021704730B5E0
:100560004FF4806404F132044FF000054FF00001B5
:1005700050E700BF90F0000F04BF0021704730B576
:100580004FF4806404F1320410F0004548BF40424B
:100590004FF000013EE700BF42004FEAE2014FEAA0
:1005A00031014FEA02701FBF12F07F4393F07F4F7B
:1005B00081F06051704732F07F4208BF704793F07E
:1005C0007F4F04BF41F40021704730B54FF4607491
:1005D00001F0004521F000411CE700BF50EA010294
:1005E00008BF704730B54FF000050AE050EA01023D
:1005F00008BF704730B511F0004502D5404261EBAD
:1006000041014FF4806404F132045FEA915C3FF4ED
:10061000D8AE4FF003025FEADC0C18BF03325FEA8A
:10062000DC0C18BF033202EBDC02C2F1200300FA3B
:1006300003FC20FA02F001FA03FE40EA0E0021FA60
:1006400002F11444BDE600BF70B54FF0FF0C4CF44E
:10065000E06C1CEA11541DBF1CEA135594EA0C0F00
:1006600095EA0C0F00F0DEF82C4481EA030621EA3B
:100670004C5123EA4C5350EA013518BF52EA033576
:1006800041F4801143F4801338D0A0FB02CE4FF028
:100690000005E1FB02E506F00042E0FB03E54FF058
:1006A0000006E1FB03569CF0000F18BF4EF0010E50
:1006B000A4F1FF04B6F5007F64F5407404D25FEA4C
:1006C0004E0E6D4146EB060642EAC62141EA5551FF
:1006D0004FEAC52040EA5E504FEACE2EB4F1FD0C41
:1006E00088BFBCF5E06F1ED8BEF1004F08BF5FEABF
:1006F000500E50F1000041EB045170BD06F0004671
:1007000046EA010140EA020081EA0301B4EB5C041D
:10071000C2BFD4EB0C0541EA045170BD41F4801115
:100720004FF0000E013C00F3AB8014F1360FDEBF3A
:10073000002001F0004170BDC4F10004203C35DA16
:100740000C341BDC04F11404C4F1200500FA05F399
:1007500020FA04F001FA05F240EA020001F000423A
:1007600021F0004110EBD37021FA04F642EB0601B0
:100770005EEA430E08BF20EAD37070BDC4F10C04DA
:10078000C4F1200500FA04F320FA05F001FA04F29E
:1007900040EA020001F0004110EBD37041F100018A
:1007A0005EEA430E08BF20EAD37070BDC4F1200595
:1007B00000FA05F24EEA020E20FA04F301FA05F2FD
:1007C00043EA020321FA04F001F0004121FA04F2A5
:1007D00020EA020000EBD3705EEA430E08BF20EA75
:1007E000D37070BD94F0000F0FD101F000464000AF
:1007F00041EB010111F4801F08BF013CF7D041EA31
:10080000060195F0000F18BF704703F00046520034
:1008100043EB030313F4801F08BF013DF7D043EA05
:100820000603704794EA0C0F0CEA135518BF95EABB
:100830000C0F0CD050EA410618BF52EA4306D1D142
:1008400081EA030101F000414FF0000070BD50EA61
:10085000410606BF1046194652EA430619D094EAEB
:100860000C0F02D150EA013613D195EA0C0F05D1D5
:1008700052EA03361CBF104619460AD181EA030129
:1008800001F0004141F0FE4141F470014FF00000E1
:1008900070BD41F0FE4141F4780170BD70B54FF07C
:1008A000FF0C4CF4E06C1CEA11541DBF1CEA1355FC
:1008B00094EA0C0F95EA0C0F00F0A7F8A4EB0504DE
:1008C00081EA030E52EA03354FEA013100F08880D5
:1008D0004FEA03334FF0805545EA131343EA12639E
:1008E0004FEA022245EA111545EA10654FEA002653
:1008F0000EF000419D4208BF964244F1FD0404F50C
:10090000407402D25B084FEA3202B61A65EB030567
:100910005B084FEA32024FF480104FF4002CB6EB24
:10092000020E75EB030E22BFB61A754640EA0C00A4
:100930005B084FEA3202B6EB020E75EB030E22BFE4
:10094000B61A754640EA5C005B084FEA3202B6EB25
:10095000020E75EB030E22BFB61A754640EA9C00E4
:100960005B084FEA3202B6EB020E75EB030E22BFB4
:10097000B61A754640EADC0055EA060E18D04FEA72
:10098000051545EA16754FEA06164FEAC30343EA12
:1009900052734FEAC2025FEA1C1CC0D111F4801FDF
:1009A0000BD141EA00014FF000004FF0004CB6E7D8
:1009B00011F4801F04BF01430020B4F1FD0C88BF77
:1009C000BCF5E06F3FF6AFAEB5EB030C04BFB6EB82
:1009D000020C5FEA500C50F1000041EB045170BD75
:1009E0000EF0004E4EEA113114EB5C04C2BFD4EBA2
:1009F0000C0541EA045170BD41F480114FF0000E26
:100A0000013C90E645EA060E8DE60CEA135594EAA1
:100A10000C0F08BF95EA0C0F3FF43BAF94EA0C0FA4
:100A20000AD150EA01347FF434AF95EA0C0F7FF419
:100A300025AF104619462CE795EA0C0F06D152EA6D
:100A400003353FF4FDAE1046194622E750EA410651
:100A500018BF52EA43067FF4C5AE50EA41047FF462
:100A60000DAF52EA43057FF4EBAE12E74FF0FF3CC7
:100A700006E000BF4FF0010C02E000BF4FF0010C98
:100A80004DF804CD4FEA410C7FEA6C5C4FEA430C11
:100A900018BF7FEA6C5C1BD001B050EA410C0CBF60
:100AA00052EA430C91EA030F02BF90EA020F0020C2
:100AB000704710F1000F91EA030F58BF994208BF29
:100AC00090422CBFD8176FEAE37040F001007047E6
:100AD0004FEA410C7FEA6C5C02D150EA013C07D13D
:100AE0004FEA430C7FEA6C5CD6D152EA033CD3D088
:100AF0005DF8040B704700BF8446104662468C4682
:100B00001946634600E000BF01B5FFF7B7FF0028B4
:100B100048BF10F1000F01BD4DF808EDFFF7F4FFDD
:100B20000CBF012000205DF808FB00BF4DF808ED68
:100B3000FFF7EAFF34BF012000205DF808FB00BF8B
:100B40004DF808EDFFF7E0FF94BF012000205DF8AD
:100B500008FB00BF4DF808EDFFF7CEFF94BF012062
:100B600000205DF808FB00BF4DF808EDFFF7C4FF5B
:100B700034BF012000205DF808FB00BF4A0011D2FD
:100B800012F5001211D20DD56FF47873B3EB6252E7
:100B90000ED44FEAC12343F0004343EA505323FAF3
:100BA00002F070474FF00000704750EA013002D168
:100BB0004FF0FF3070474FF0000070474FEA41029E
:100BC000B2F1E04324BFB3F5001CDCF1FE5C0DD9AB
:100BD00001F0004C4FEAC0024CEA5070B2F1004FF5
:100BE00040EB830008BF20F00100704711F0804FF8
:100BF00021D113F13872BCBF01F00040704741F4BD
:100C000080114FEA5252C2F11802C2F1200C10FAC0
:100C10000CF320FA02F018BF40F001004FEAC123A4
:100C20004FEAD32303FA0CFC40EA0C0023FA02F348
:100C30004FEA4303CCE77FEA625307D150EA01331E
:100C40001EBF4FF0FE4040F44000704701F00040EE
:100C500040F0FE4040F40000704700BF80F00040CC
:100C600002E000BF81F0004142001FBF5FEA410384
:100C700092EA030F7FEA226C7FEA236C6AD04FEA84
:100C80001262D2EB1363C1BFD218414048404140C9
:100C9000B8BF5B42192B88BF704710F0004F40F47B
:100CA000000020F07F4018BF404211F0004F41F497
:100CB000000121F07F4118BF494292EA030F3FD063
:100CC000A2F1010241FA03FC10EB0C00C3F1200376
:100CD00001FA03F100F0004302D5494260EB400005
:100CE000B0F5000F13D3B0F1807F06D340084FEA70
:100CF000310102F10102FE2A51D2B1F1004F40EB65
:100D0000C25008BF20F0010040EA030070474900CC
:100D100040EB000010F4000FA2F10102EDD1B0FA97
:100D200080FCACF1080CB2EB0C0200FA0CF0AABF8C
:100D300000EBC25052421843BCBFD040184370472A
:100D400092F0000F81F4000106BF80F40000013230
:100D5000013BB5E74FEA41037FEA226C18BF7FEA07
:100D6000236C21D092EA030F04D092F0000F08BF49
:100D70000846704790EA010F1CBF0020704712F030
:100D80007F4F04D1400028BF40F00040704712F16F
:100D900000723CBF00F50000704700F0004343F0D4
:100DA000FE4040F4000070477FEA226216BF08460A
:100DB0007FEA23630146420206BF5FEA412390EACD
:100DC000010F40F4800070474FF0000304E000BFC3
:100DD00010F0004348BF40425FEA000C08BF704774
:100DE00043F0964301464FF000001CE050EA010238
:100DF00008BF70474FF000030AE000BF50EA01024D
:100E000008BF704711F0004302D5404261EB410139
:100E10005FEA010C02BF84460146002043F0B6435E
:100E200008BFA3F18053A3F50003BCFA8CF2083A83
:100E3000A3EBC25310DB01FA02FC634400FA02FC8C
:100E4000C2F12002BCF1004F20FA02F243EB020093
:100E500008BF20F00100704702F1200201FA02FCF5
:100E6000C2F1200250EA4C0021FA02F243EB0200E8
:100E700008BF20EADC70704753B94AB9002908BF9F
:100E800000281CBF4FF0FF314FF0FF3000F096B943
:100E9000ADF1080C6DE904CE00F02AF8DDF804E0AD
:100EA000DDE9022304B07047D0B5FFF775FB0022DF
:100EB0000D4B06460F46FFF7C7FBFFF75FFE0446E4
:100EC000FFF748FB0022094BFFF7BEFB02460B462B
:100ED00030463946FFF700FAFFF750FE002223465E
:100EE00010431946D0BD00BF0000F03D0000F041A6
:100EF0002DE9F047089E04468846002B4BD18A42D4
:100F0000154667D9B2FA82F24AB1C2F1200701FA56
:100F100002F320FA07F7954047EA030894404FEAA6
:100F2000154E230CB8FBFEF71FFA85FC0EFB178845
:100F300043EA084307FB0CF1994209D9EB1807F182
:100F4000FF3080F01B81994240F21881023F2B4410
:100F50005B1AA4B2B3FBFEF00EFB103344EA034469
:100F600000FB0CFCA44509D92C1900F1FF3380F0DB
:100F70000781A44540F2048102382C4440EA07402E
:100F8000A4EB0C0400271EB1D4400023C6E90043A3
:100F90003946BDE8F0878B4209D9002E00F0EB807E
:100FA0000027C6E9000138463946BDE8F087B3FAA4
:100FB00083F7002F47D18B4202D3824200F2FA809E
:100FC000841A61EB030301209846002EE0D0C6E9A5
:100FD0000048DDE702B9FFDEB2FA82F2002A40F0F3
:100FE0008F80491B4FEA154E1FFA85F80127B1FB88
:100FF000FEFC230C0EFB1C1143EA014308FB0CF121
:10100000994207D9EB180CF1FF3002D2994200F255
:10101000CD808446591AA3B2B1FBFEF00EFB10142A
:1010200043EA044408FB00F8A04507D92C1900F155
:10103000FF3302D2A04500F2B6801846A4EB0804A4
:1010400040EA0C409FE7C7F1200CBB4022FA0CFE9F
:101050004EEA030E01FA07F420FA0CF521FA0CF31C
:101060004FEA1E482543B3FBF8F92C0C08FB193353
:101070001FFA8EFA44EA034309FB0AF49C4202FA7F
:1010800007F200FA07F10BD91EEB030309F1FF3059
:1010900080F087809C4240F28480A9F10209734469
:1010A0001B1BADB2B3FBF8F008FB103345EA034459
:1010B00000FB0AFAA24508D91EEB040400F1FF3335
:1010C0006BD2A24569D90238744440EA0940A0FBBA
:1010D0000289A4EB0A044C45C2464B4654D351D076
:1010E000002E69D0B1EB0A0564EB030404FA0CFC92
:1010F000FD40FC404CEA0505C6E90054002747E7DF
:10110000C2F1200320FA03F7954001FA02F021FA18
:1011100003F34FEA154E3843010CB3FBFEF71FFAF9
:1011200085F80EFB173341EA034107FB08F38B42B6
:1011300004FA02F407D9691807F1FF3C2FD28B4259
:101140002DD9023F2944CB1A81B2B3FBFEF00EFB2E
:10115000103341EA034100FB08F38B4207D96918B9
:1011600000F1FF3C17D28B4215D902382944C91A25
:1011700040EA07473BE73746304609E70746E7E6D8
:101180001846FBE64145ABD2B8EB020A69EB0E020A
:1011900001381346A4E76046E9E7184695E7674635
:1011A000D1E781467CE702382C4447E7ACF1020CDA
:1011B0002B442FE7384608E73746E9E6704700BF7B
:1011C00010B504460E4B18784FF47A73B3FBF0F366
:1011D0000C4A1068B0FBF3F000F0EAF868B90F2C85
:1011E00001D901200AE0002221464FF0FF3000F033
:1011F00067F8054B1C60002000E0012010BD00BF17
:1012000000000020880000200400002008B5094BE1
:101210001A6842F400721A601A6842F480721A6006
:10122000032000F02FF80020FFF7CAFF13F042FC64
:10123000002008BD003C0240034A1168034B1B78A4
:101240000B441360704700BF5C15002000000020B5
:10125000014B1868704700BF5C15002038B5044684
:10126000FFF7F6FF0546B4F1FF3F02D0044B1B78B1
:101270001C44FFF7EDFF401BA042FAD338BD00BF6E
:101280000000002010B50446C31E042B0DD8094AE7
:10129000D36823F4E0631B041B0C240204F4E06411
:1012A0001C43054B2343D36010BD9221034811F02A
:1012B00021FCECE700ED00E00000FA05487B0108A6
:1012C00070B505460C4616460F2A21D80F2C24D897
:1012D000194BDB68C3F30223C3F10702042A28BFBA
:1012E0000422191D06291DD9033B4FF0FF3101FAD5
:1012F00002F224EA02049C4001FA03F326EA030600
:101300003443002D10DB2401E4B20C4B5C5570BD5E
:10131000AA210B4811F0EEFBD8E7AB21084811F0E9
:10132000E9FBD5E70023E0E705F00F052401E4B26F
:10133000044B5C55EBE700BF00ED00E000E400E08B
:10134000487B010814ED00E010B5041E0ADB002CF8
:1013500007DB04F01F02640901239340044A42F8AA
:10136000243010BDBE21034811F0C4FBEFE700BFDD
:1013700000E100E0487B010810B5041E0FDB002CE3
:101380000CDB04F01F026409012393402034064A59
:1013900042F82430BFF34F8FBFF36F8F10BDCE21C3
:1013A000024811F0A7FBEAE700E100E0487B0108F2
:1013B0000138B0F1807F0AD2064B5860064AF0210E
:1013C00082F823100020986007221A6070470120DD
:1013D000704700BF10E000E000ED00E0BFF35F8F5A
:1013E000044A536A23F480335362034B00225A6049
:1013F000704700BF00ED00E090ED00E040F001001C
:10140000054B5860054A536A43F480335362BFF377
:101410004F8FBFF36F8F704790ED00E000ED00E05D
:1014200030B405682C6824F480242C600468636060
:101430008368402B05D0036899600368DA6030BC8C
:10144000704703689A600368D960F8E70268D3B20E
:10145000103B0949A1FB03131B090849C95CC1657D
:10146000032B04D8064B13408365806D7047044BF3
:10147000134004338365F8E7ABAAAAAABC7B010832
:1014800000FCFFFF836A826992B9012B0AD01BB16D
:10149000022B01D000207047C36A13F0807F2CD14B
:1014A00000207047C36AB3F1C07F28D00020704786
:1014B000B2F5005F05D0022B29D9032B15D00020EF
:1014C0007047032B03D8DFE803F01C041C0A00203C
:1014D0007047C36A13F0807F15D100207047C36A3C
:1014E000B3F1C07F11D000207047C36A13F0807F32
:1014F00001D0012070470020704701207047012073
:10150000704701207047012070470120704701207B
:101510007047000070B50446FFF79AFE002C00F0FB
:101520006C8105462368AB49AB4A8B4218BF934296
:101530002ED0183293422BD01832934228D0183232
:10154000934225D01832934222D0183293421FD0B2
:10155000183293421CD002F55672934218D01832BA
:10156000934215D01832934212D0183293420FD0C2
:10157000183293420CD01832934209D01832934259
:1015800006D01832934203D0B921944811F0B2FA30
:10159000636813F17E4218BF0122002B08BF0022AE
:1015A00092B1B3F1806F0FD0B3F1C06F0CD0B3F133
:1015B000006F09D0B3F1206F06D0B3F1406F03D0B4
:1015C000B3F1606F40F09480A268B2F1400318BF9D
:1015D0000123002A08BF002313B1802A40F08D8028
:1015E000E368B3F5007F18BF002B40F08B802369C0
:1015F000B3F5806F18BF002B40F089806269B2F5A7
:10160000006318BF0123002A08BF00231BB1B2F5F5
:10161000805F40F08180A269B2F5005318BF0123BA
:10162000002A08BF002313B1B2F5804F79D1E269D7
:10163000B2F5807318BF0123002A08BF00230BB145
:10164000202A73D1226AB2F5803318BF0123002A01
:1016500008BF00232BB1B2F5003F02D0B2F5403FE6
:1016600069D1626A131F18BF0123002A08BF002333
:10167000002B65D1636A03B3A36A032B65D8E26AC2
:10168000B2F5000318BF0123002A08BF00232BB1C5
:10169000B2F1807F02D0B2F1C07F5BD1226BB2F594
:1016A000001318BF0123002A08BF00232BB1B2F595
:1016B000800F02D0B2F5C00F51D1002384F834302E
:1016C000022384F835302268136823F00103136085
:1016D00023681A6812F0010F46D0FFF7B9FD401BCE
:1016E0000528F5D920236365032084F8350070BDF3
:1016F000BA213A4811F0FEF966E7BB21374811F0EC
:10170000F9F96DE7BC21354811F0F4F96FE7BD2117
:10171000324811F0EFF971E7BE21304811F0EAF9D3
:1017200079E7BF212D4811F0E5F980E7C0212B486A
:1017300011F0E0F986E7C121284811F0DBF990E7C4
:10174000C221264811F0D6F994E7C721234811F0A9
:10175000D1F994E7C821214811F0CCF99EE7C921BD
:101760001E4811F0C7F9A8E71A681D4810406168C3
:10177000A2680A43E1680A4321690A4361690A438E
:10178000A1690A43E1690A43216A0A430243616A83
:10179000042927D01A602668756925F00705636A51
:1017A0001D43042B07D1A36A1D43E36A1BB12046E6
:1017B000FFF768FED8B975612046FFF747FEE26D76
:1017C0003F239340836000206065012384F8353017
:1017D0008DE700BF1060024028600240847B010852
:1017E0003F8010F0E16A206B01430A43D2E74023B7
:1017F0006365012084F8350079E7012077E700BFB1
:101800002DE9F04104460F4690461D46866D5A1E4E
:101810004FF6FE739A4211D894F83430012B3AD027
:10182000012384F8343094F83530DBB2012B0BD02F
:10183000002384F834300220BDE8F08140F2CD115D
:10184000164811F057F9E7E7022384F835300023F2
:1018500063652B46424639462046FFF7E1FDE26DBF
:101860003F239340B3602268136843F0160313606C
:101870002268536943F080035361236C23B12268CB
:10188000136843F0080313602268136843F00103F0
:1018900013600020D0E70220CEE700BF847B010860
:1018A00070B50446866DFFF7D3FC94F83530DBB293
:1018B000022B06D080236365002384F83430012096
:1018C00070BD05462268136823F016031360226872
:1018D000536923F080035361236CE3B122681368DA
:1018E00023F0080313602268136823F001031360D8
:1018F00023681B6813F0010F11D0FFF7A9FC401BF0
:101900000528F5D920236365002384F834300320AB
:1019100084F83500D4E7A36C002BDFD1E3E7E26D58
:101920003F239340B360002084F83400012384F8FF
:101930003530C5E790F83530DBB2022B03D0802379
:10194000436501207047052380F83530026813682D
:1019500023F001031360002070470000F0B583B04E
:10196000044600230193724B1D68724BA3FB05359F
:10197000AD0A876D3E68C26D08239340334210D094
:1019800003681A6812F0040F0BD01A6822F00402E0
:101990001A60C26D08239340BB60436D43F001039E
:1019A0004365E26D01239340334209D022685269B6
:1019B00012F0800F04D0BB60636D43F002036365D7
:1019C000E26D04239340334209D02268126812F07A
:1019D000020F04D0BB60636D43F004036365E26DE6
:1019E00010239340334224D02268126812F0080F6B
:1019F0001FD0BB6023681A6812F4802F0DD01B68BB
:101A000013F4002F04D1236C9BB12046984710E0BB
:101A1000A36C73B1204698470BE01A6812F4807FDC
:101A200003D11A6822F008021A60236C0BB1204619
:101A30009847E26D20239340334255D022681268C4
:101A400012F0100F50D0BB6094F83530DBB2052B8C
:101A50000ED023681A6812F4802F33D01B6813F459
:101A6000002F2AD1636C002B3ED0204698473BE0E4
:101A70002268136823F0160313602268536923F069
:101A800080035361236CA3B12268136823F0080319
:101A90001360E26D3F239340BB60002384F8343031
:101AA000012384F83530236D002B3FD02046984722
:101AB0003CE0A36C002BE7D1EBE7E36BA3B120463E
:101AC000984711E01A6812F4807F09D11A6822F051
:101AD00010021A60002384F83430012384F8353072
:101AE000E36B0BB120469847636DFBB1636D13F058
:101AF000010F17D0052384F835302268136823F0CE
:101B000001031360019B01330193AB4204D82368A6
:101B10001B6813F0010FF5D1002384F83430012342
:101B200084F83530E36C0BB12046984703B0F0BD24
:101B300088000020B5814E1B70B40668746C04F0F8
:101B40004044039D45EA03431C4374640368DA631D
:101B50004368B3F5403F03D00368D96070BC704759
:101B600001F07F4601F47F0301F47F45CAB2846827
:101B700094B1012C0ED0022C11D0032C17D0360FAB
:101B80001B0D2D0B190241EA051141EA063141EA0C
:101B9000121101E021F07F4103689963DEE7DB0C5D
:101BA000AD0AD90241EA451141EAD201F4E7F60F44
:101BB000DB0CED0A990241EA451141EAC63141EADE
:101BC000D201E9E7002855D010B5044602682A4B37
:101BD0009A4203D0F621294810F08CFF6268B2F5D2
:101BE000803318BF0123002A08BF00232BB1B2F5B0
:101BF000003F02D0B2F5403F27D1A368042B29D87B
:101C0000E368B3F5804F2AD294F8393063B30223E6
:101C100084F839302268136823F4403361680B4339
:101C200013602268536B23F00703A1680B435363CF
:101C30002268116C124B0B40E1680B4313640020C7
:101C4000E063012384F8393010BDF7210B4810F010
:101C500051FFD2E7F821094810F04CFFD0E7F921F5
:101C6000064810F047FFCFE784F8383020460FF0E1
:101C7000D7FDCCE70120704700B00240C47B0108CB
:101C800000C0FFFF2DE9F04182B004460F469046A8
:101C90001D46089EB6F5803F1CD2B5F5804F1FD279
:101CA00094F83830012B21D0012384F838300223F6
:101CB00084F8393000962B46424639462046FFF7D5
:101CC0003BFF2268136843F001031360002002B059
:101CD000BDE8F0814FF42971054810F00BFFDCE7F7
:101CE00040F2A521024810F005FFD9E70220EEE7F7
:101CF000C47B010870B582B004460D4600230193F1
:101D000003681B6813F0010F11D12268D369526A6E
:101D1000134313F0200F47D1236812229A60012346
:101D200084F83930002084F8380002B070BDFFF725
:101D30008FFA064623685A6812F0020FE5D15A68F6
:101D40000192019A12F0210F14D1B5F1FF3FF1D0A9
:101D5000FFF77EFA801BA84201D8002DEAD1E36B81
:101D600043F02003E363032084F83900002384F860
:101D70003830DAE7019A12F0200F03D0E26B42F01C
:101D80000202E263019A12F0010F03D0E26B42F00B
:101D90000102E26321229A60042384F8393000238F
:101DA00084F838300120C0E7FFF752FA064623686E
:101DB0005A6812F0100FAFD15A680192019A12F0CE
:101DC000290F14D1B5F1FF3FF1D0FFF741FA801B85
:101DD000A84201D8002DEAD1E36B43F02003E3636E
:101DE000032084F83900002384F838309DE7019AF5
:101DF00012F0080F03D0E26B42F00402E263019A92
:101E000012F0200F03D0E26B42F00202E263019A6B
:101E100012F0010F03D0E26B42F00102E2632922CB
:101E20009A60042384F83930002384F83830012084
:101E30007BE7000038B504460D46012948D804EB7D
:101E400005139B69B3F5804F48D26368B3F5403FF3
:101E50000BD004EB0513DB690A2B45D8636823B16B
:101E6000AB1C1B01E358022B44D894F83830012BEB
:101E70006FD0012384F83830022384F8393004EB22
:101E80000513DA69AB1C1B01E35842EA0343093A24
:101E9000012A35D9AA1C04EB0212526843EA0263F4
:101EA000002D3ED12168486A2B4A024013434B6201
:101EB000226804EB051399699161DB69093B012BE9
:101EC00026D9012384F83930002084F8380038BD41
:101ED00040F24A61214810F00DFEB0E740F24B613C
:101EE0001E4810F007FEB0E740F24E611B4810F0AC
:101EF00001FEB3E740F25161184810F0FBFDB4E772
:101F0000AA1C04EB0212526802F07F421343C7E797
:101F1000023504EB05156B68226823F07F4393625A
:101F2000CFE72168C8690C4A02401343CB6122689D
:101F300004EB051399691161DB69093B012BC0D8DA
:101F4000023504EB05156B68226823F07F431362AA
:101F5000B7E70220BBE700BFF0FFFC00C47B01082D
:101F60002DE9F04782B080460E46B54AB54B904207
:101F700018BF98422BD003F50063C31A18BF012382
:101F800002F50062904222D00BB3AF4BC31A18BFC8
:101F9000012302F50062904219D0C3B1AB4BC31AC2
:101FA00018BF012302F50062904210D07BB1A84B0C
:101FB000C31A18BF012302F50062904207D033B163
:101FC000A44B984203D0B121A34810F093FD33886D
:101FD00033B37368112B18BF012B1CD9022B1AD0F5
:101FE000122B18D09D4A934215D002F580129342CD
:101FF00011D002F5801293420DD0A2F5F81293424F
:1020000009D002F58012934205D002F58012934266
:1020100001D0032B09D1B368022B0BD800244FE069
:10202000B2218D4810F066FDD3E7B3218A4810F045
:1020300061FDF0E7B421884810F05CFDEEE7C521B2
:10204000854810F057FD52E0D921834810F052FD29
:102050007DE0092300E000238B40034302328049E6
:1020600041F822307F4B1A68FB4303EA0201706893
:1020700010F4803F01D047EA02017A4A11605268A9
:1020800003EA0201706810F4003F01D047EA020140
:10209000744A5160926803EA0201706810F4801F6C
:1020A00001D047EA02016F4A9160D268134071681B
:1020B00011F4001F01D047EA02036A4AD3600134D9
:1020C0000F2C00F2B9800125A54037682F40BD4292
:1020D000F5D17368122B18BF022B18D133690F2B5F
:1020E00018BF0C2B03D90D2B01D00E2BA7D1E20862
:1020F000083258F8220004F0070399000F238B40A0
:1021000020EA030033698B40034348F82230D8F8B3
:1021100000204FEA440A4FF0030909FA0AF96FEA6E
:10212000090909EA0202736803F0030303FA0AF3D8
:102130001343C8F8003073685A1E112B18BF012AC8
:1021400001D9122B18D1F368032B3FF67DAFD8F8D5
:10215000082009EA0202F36803FA0AF31343C8F8F5
:102160000830D8F8042022EA05027368C3F300158A
:10217000A5401543C8F80450D8F80C3009EA030903
:10218000B36803FA0AF343EA0903C8F80C3073682A
:1021900013F0805F93D0344B5A6C42F480425A64FF
:1021A0005B6C03F480430193019BA208911C2C4BB0
:1021B00053F8210004F0030399000F238B4020EA19
:1021C00003001F4B98453FF446AF03F580639845E5
:1021D00022D003F58063984520D003F580639845AD
:1021E0001ED003F5806398451CD003F580639845A5
:1021F0001AD003F58063984518D003F5806398459D
:1022000016D003F58063984514D003F58063984594
:102210003FF41FAF0A231FE701231DE702231BE73B
:10222000032319E7042317E7052315E7062313E71C
:10223000072311E708230FE702B0BDE8F08700BFCE
:10224000000002400004024000140240001C024052
:102250000024024000280240007C01080000111008
:1022600000380140003C01400038024038B50546C6
:102270000C4621B12B691C4207D1002038BD4FF418
:10228000BD71034810F036FCF4E70120F6E700BF0B
:10229000007C010870B5064615460C4629B1012D93
:1022A00009D875B92404B46170BD4FF4CD710648E6
:1022B00010F020FCF3E740F29B11034810F01AFCE9
:1022C000EFE7B461F0E700BF007C01087047000051
:1022D00008B5054B5B69034200D108BD024B58614C
:1022E000FFF7F4FFF9E700BF003C014003689A697B
:1022F00012F0020F01D000229A6203689A6912F06C
:10230000010F03D19A6942F001029A6170470000FF
:102310002DE9F04180460C4617461E46069D03688F
:102320002649274A8B4218BF93420CD002F580629F
:10233000934208D002F58062934204D041F6C10175
:10234000204810F0D7FBB6F1807F18BFB6F1007FB0
:1023500000D066BB1C4A1D4B954218BF9D420CD055
:102360002A1C18BF0122A3F580639D4205D022B12B
:1023700041F6C301134810F0BDFBD8F800104B68BC
:102380006A0D02F4806242F07F7242F4583242F4E5
:102390007F7242F0030223EA0203C4F3090444EA11
:1023A000074434432C431C434C60BDE8F08141F6A4
:1023B000C201044810F09EFBCCE700BF005400406F
:1023C000005800403C7C0108004000800024008050
:1023D00070B504460D46164603689B6913F0100F4E
:1023E0001CD023689A6912F0200F19D1B5F1FF3F74
:1023F000F7D0FEF72DFF801BA84201D8002DF0D1A9
:10240000636C43F020036364202384F8413000238D
:1024100084F8423084F84030012020E000201EE0A3
:102420001022DA6123682025DD612046FFF75EFF78
:102430002268536823F0FF7323F48B3323F4FF7374
:1024400023F001035360636C43F00403636484F876
:102450004150002384F8423084F84030012070BDA0
:1024600070B504460D46164623689B6913F0020FAB
:102470001DD1324629462046FFF7AAFFC8B9B5F15B
:10248000FF3FF1D0FEF7E4FE801BA84201D8002DEB
:10249000EAD1636C43F020036364202384F8413065
:1024A000002384F8423084F84030012000E000200E
:1024B00070BD0120FCE7F8B505460F4616461C46E0
:1024C0002B689B6937EA03030CBF01230023B34247
:1024D00018D1B4F1FF3FF3D0FEF7BAFE069BC01A45
:1024E000A04201D8002CEBD16B6C43F020036B644D
:1024F000202385F84130002385F8423085F84030AC
:10250000012000E00020F8BD70B582B004461646F8
:102510001D46184B00934FF08073EAB2FFF7F8FEA8
:10252000079A06992046FFF79BFFE8B9012D0ED1C7
:102530002368F6B29E62079B0093069B00228021CF
:102540002046FFF7B8FF034678B101230DE023686A
:10255000320A9A62079A06992046FFF781FF38B936
:102560002368F6B29E62E6E70123184602B070BD0A
:102570000123FAE70020008070B582B004461646B9
:102580001D46184B00930023EAB2FFF7C1FE079ADD
:1025900006992046FFF764FFE8B9012D0ED12368A4
:1025A000F6B29E62079B0093069B002240212046C4
:1025B000FFF781FF034678B101230DE02368320A5B
:1025C0009A62079A06992046FFF74AFF38B92368AE
:1025D000F6B29E62E6E70123184602B070BD012301
:1025E000FAE700BF0020008070B505460C4616468D
:1025F0002B689B6913F0200F1AD1324621462846DA
:10260000FFF7E6FEB0B9FEF723FE801BA04201D81B
:10261000002CEDD16B6C43F020036B64202385F814
:102620004130002385F8423085F84030012070BDEC
:102630000020FCE70120FAE7002800F0C38010B575
:10264000044603686049614A8B4218BF93420CD02C
:1026500002F58062934208D002F58062934204D072
:102660004FF4EF715A4810F045FAA368B3F5806F44
:102670006DD2E368013B012B6FD82269B2F50043AC
:1026800018BF0123002A08BF0023002B6BD1636908
:10269000FF2B6ED8A369072B71D8E269B2F500232E
:1026A00018BF0123002A08BF0023002B6DD1226A26
:1026B000B2F5003318BF0123002A08BF0023002B06
:1026C00069D194F84130002B6BD0242384F8413039
:1026D0002268136823F0010313606368226823F003
:1026E000706313612268936823F400439360E36886
:1026F000012B5CD0A368226843F404439360E36831
:10270000022B5AD022685168324B0B435360226827
:10271000D36823F40043D360236962691343A1693A
:10272000226843EA0123D360E369216A22680B43EC
:1027300013602268136843F0010313600020606493
:10274000202384F84130206384F8420010BD40F219
:10275000DF111F4810F0CEF98BE74FF4F0711C48E1
:1027600010F0C8F989E740F2E111194810F0C2F9F8
:102770008DE74FF4F171164810F0BCF98AE740F28A
:10278000E311134810F0B6F987E74FF4F2711048DF
:1027900010F0B0F98BE740F2E5110D4810F0AAF9FE
:1027A0008FE784F8403020460FF090FC8DE7A36857
:1027B000226843F400439360A1E723684FF400626A
:1027C0005A609FE7012070470054004000580040C5
:1027D0003C7C0108008000022DE9F04782B00446ED
:1027E0000F4690461D46BDF82C60013B9BB2012B65
:1027F00024D894F84130DBB2202B40F0C380B6FAE5
:1028000086F35B090A9A002A08BF0123E3B994F80A
:102810004030012B00F0BB804FF0010A84F840A04B
:10282000FEF716FD81460090192352464FF40041F1
:102830002046FFF740FE60B10123A4E040F6ED0121
:10284000574810F057F9D4E74FF40073636401233D
:1028500099E0212384F84130402384F8423000235A
:1028600063640A9A626266856363CDF804900C9B88
:1028700000932B46424639462046FFF745FE70B985
:10288000638D9BB2FF2B0FD9FF222285002300937B
:102890004FF0807339462046FFF73AFD21E00023D0
:1028A00084F8403053466EE0628D92B22285002358
:1028B00000934FF00073D2B239462046FFF728FD4F
:1028C0000FE0628D92B22285002300934FF00073D7
:1028D000D2B239462046FFF71BFD638D9BB2002B19
:1028E00033D04A460C992046FFF7BAFD002850D154
:1028F000626A236812789A62636A01336362638D45
:10290000013B9BB26385238D013B9BB22385628D86
:1029100092B2002AE1D0002BDFD1CDF800900C9BC1
:10292000002280212046FFF7C6FDA0BB638D9BB22D
:10293000FF2BC6D9FF222285002300934FF080731E
:1029400039462046FFF7E4FCC7E74A460C99204683
:10295000FFF74AFE034600BB22682021D1612068B0
:10296000426822F0FF7222F48B3222F4FF7222F0CE
:102970000102426084F84110002284F8422084F869
:10298000402000E00223184602B0BDE8F087022391
:10299000F9E70123F7E70123F5E70123F3E700BF98
:1029A0003C7C01082DE9F04782B0044689469046F8
:1029B0001D46BDF82C60013B9BB2012B24D894F836
:1029C0004130DBB2202B40F0C380B6FA86F35B09BE
:1029D0000A9A002A08BF0123E3B994F84030012B7A
:1029E00000F0BB804FF0010A84F840A0FEF730FCF5
:1029F00007460090192352464FF400412046FFF746
:102A00005AFD60B10123A4E040F67411574810F05C
:102A100071F8D4E74FF400736364012399E0222333
:102A200084F84130402384F84230002363640A9ADA
:102A300062626685636301970C9B00932B46424656
:102A400049462046FFF798FD70B9638D9BB2FF2B76
:102A50000FD9FF222285464B00934FF080734946E1
:102A60002046FFF755FC21E0002384F84030534610
:102A70006FE0628D92B222853D4B00934FF0007360
:102A8000D2B249462046FFF743FC0FE0628D92B276
:102A90002285002300934FF00073D2B249462046AE
:102AA000FFF736FC638D9BB2002B34D000970C9B54
:102AB000002204212046FFF7FEFC00284FD12368A6
:102AC0005A6A636A1A70636A01336362238D013B39
:102AD0009BB22385628D013A92B26285628D92B279
:102AE000002ADFD0002BDDD100970C9B0022802133
:102AF0002046FFF7E0FCA0BB638D9BB2FF2BC5D93E
:102B0000FF222285002300934FF080734946204620
:102B1000FFF7FEFBC6E73A460C992046FFF764FD37
:102B2000034600BB22682021D1612068426822F060
:102B3000FF7222F48B3222F4FF7222F00102426013
:102B400084F84110002284F8422084F8402000E0FC
:102B50000223184602B0BDE8F0870223F9E70123FB
:102B6000F7E70123F5E70123F3E700BF3C7C010809
:102B70000024008038B504460D4603682549264ADE
:102B80008B4218BF93420BD002F58062934207D06C
:102B900002F58062934203D05F2120480FF0AAFF24
:102BA000B5F5805318BF0123002D08BF002343BB98
:102BB00094F84130DBB2202B28D194F84030012B1F
:102BC00026D0012384F84030242384F84130226841
:102BD000136823F0010313602268136823F4805301
:102BE0001360226813681D4315602268136843F060
:102BF00001031360202384F84130002084F8400052
:102C000005E0602105480FF075FFD1E7022038BDCF
:102C10000220FCE70054004000580040747C01088A
:102C200038B504460D4603682149224A8B4218BF35
:102C300093420BD002F58062934207D002F5806286
:102C4000934203D08D211C480FF054FF0F2D26D83E
:102C500094F84130DBB2202B26D194F84030012B80
:102C600024D0012384F84030242384F841302268A2
:102C7000136823F0010313602368196821F470615D
:102C800041EA052119602268136843F001031360CB
:102C9000202384F84130002084F8400005E08E2194
:102CA00005480FF027FFD3E7022038BD0220FCE7DC
:102CB0000054004000580040747C0108F0B44D6896
:102CC0000468E368C3F30B431D44D2011444D4F8F1
:102CD000883003F47043C4F888300B680468E668F1
:102CE000C6F30B4633440133144443EA0543C4F8A6
:102CF0008830CD680468E368C3F30A031D441444B4
:102D0000D4F88C3003F47043C4F88C308B680468BA
:102D1000E668C6F30A0633440133144443EA054324
:102D2000C4F88C3003681344D3F8944024F00704AB
:102D3000C3F89440036813440C69C3F8944091F8B5
:102D400031C091F832708E6905681544D5F89C3011
:102D50000024C5F89C4091F8303043EA0C2343EA44
:102D600007430568154443EA0663C5F89C300368C9
:102D70001344D3F8985025F0FF05C3F89850036822
:102D800013444D69C3F8985003681344D3F8A06006
:102D90002D4D3540C3F8A050CD690E6A0368134429
:102DA0003543C3F8A05003681344D3F8AC50C3F8BC
:102DB000AC40036813444C6AC3F8AC400B696BB178
:102DC000012B3AD0022B18BF042B38D0032B38D05C
:102DD000072B01D0012302E0022300E00423046852
:102DE0001444D4F8B05005F0E025C4F8B0508C6A13
:102DF00003FB04F54C680E68A41B03FB04F30333C8
:102E00000468144443EA0543C4F8B030036813442B
:102E1000D3F8B4500D4C2C40C3F8B44003681344AD
:102E2000C96AC3F8B41003681A44D2F8843043F076
:102E30000103C2F88430F0BC70470323CFE70223BC
:102E4000CDE70223CBE700BFF8F8FFFF00F8FFFF54
:102E5000002800F00D8138B504460268854B9A427F
:102E600003D0CA2184480FF045FE6369B3F5805F43
:102E700080F0BC80A369B3F5006F80F0BC80E3698B
:102E8000B3F5805F80F0BC80236AB3F5006F80F0FB
:102E9000BC80A36AB3F5006F80F0BC80636AB3F5B1
:102EA000805F80F0BC80236BB3F5006F80F0BC8046
:102EB000E36AB3F5805F80F0BC80626812F1004382
:102EC00018BF0123002A08BF0023002B40F0B68062
:102ED000A26812F1404318BF0123002A08BF002353
:102EE000002B40F0B080E26812F1604318BF01236C
:102EF000002A08BF0023002B40F0AA80226912F1AB
:102F0000704318BF0123002A08BF0023002B40F0A4
:102F1000A48094F8A130002B00F0A480022384F850
:102F2000A1302268936923F07043936121688A6914
:102F30006368A0680343E0680343206903431343C5
:102F40008B6121688A684D4B1A408A6065692068E8
:102F50008268A16941EA05410A4382602168CA6822
:102F60001A40CA60E5692068C268216A41EA0541E1
:102F70000A43C26021680A691A400A61656A2068CA
:102F80000269A16A41EA05410A43026121684A696E
:102F900013404B61E06A21684B69226B42EA0042B0
:102FA00013434B6194F8350094F836301B042168C4
:102FB000CA6A02F07F42CA622168CA6A43EA0023F1
:102FC00094F8340003431343CB622268536B43F0FD
:102FD000060353632268936943F001039361002061
:102FE000C4F8A400012384F8A13038BDCB212248C5
:102FF0000FF080FD3EE7CC211F480FF07BFD3EE740
:10300000CD211D480FF076FD3EE7CE211A480FF086
:1030100071FD3EE7CF2118480FF06CFD3EE7D0214F
:1030200015480FF067FD3EE7D12113480FF062FD10
:103030003EE7D22110480FF05DFD3EE7D3210E4858
:103040000FF058FD44E7D4210B480FF053FD4AE739
:10305000D52109480FF04EFD50E7D62106480FF064
:1030600049FD56E784F8A03020460FF0EBF855E70D
:103070000120704700680140B07C010800F800F0B2
:103080002DE9F84307460E469046012A53D8336887
:10309000B3F5805F55D27368B3F5803F57D2B368FC
:1030A000B3F5805F59D2F368B3F5803F5BD23369E3
:1030B000072B5ED87369FF2B61D8B369FF2B64D8E7
:1030C000F369B3F5806F18BFB3F5C06F63D1336A8E
:1030D000052B18BF072B64D1B36AB3F5005F66D226
:1030E000F36AB3F5006F68D297F8A030012B6AD06D
:1030F0004FF0010987F8A090022387F8A13034240B
:1031000004FB0874383435460FCD0FC40FCD0FC4FF
:103110000FCD0FC42B682360424631463846FFF777
:10312000CDFD3B68C3F8249087F8A190002087F874
:10313000A000BDE8F88340F2FE2124480FF0DAFC3D
:10314000A5E740F2FF2121480FF0D4FCA3E74FF49C
:1031500040711E480FF0CEFCA1E740F201311B4840
:103160000FF0C8FC9FE740F2023118480FF0C2FC94
:103170009DE740F2033115480FF0BCFC9AE74FF48D
:10318000417112480FF0B6FC97E740F205310F4845
:103190000FF0B0FC94E740F206310C480FF0AAFCA7
:1031A00095E740F2073109480FF0A4FC94E74FF48B
:1031B000427106480FF09EFC92E740F20931034845
:1031C0000FF098FC90E70220B3E700BFB07C010845
:1031D000F8B504460F461546012A1DD894F8A030CC
:1031E000012B1FD0012684F8A060022384F8A130AF
:1031F000342303FB05F303F138012344DF652A463A
:1032000021442046FFF75AFD23685E6284F8A160DE
:10321000002084F8A000F8BD40F2115102480FF0E0
:1032200069FCDBE70220F6E7B07C010838B504460C
:103230000D464B1E012B16D894F8A030012B18D048
:10324000012284F8A020022384F8A13021684B6B6E
:1032500043F008034B6323685D6284F8A1200020DB
:1032600084F8A00038BD40F2AA5103480FF042FC98
:10327000E2E70220F6E700BFB07C0108F8B504469B
:103280000E461546FF291DD8012D21D894F8A030EF
:10329000012B23D0012784F8A070022384F8A130E9
:1032A000342303FB05F303F138012344DE642A468B
:1032B00021442046FFF702FD84F8A170002084F825
:1032C000A000F8BD40F2966105480FF013FCDBE763
:1032D00040F2976102480FF00DFCD7E70220F0E7BB
:1032E000B07C010810B582B01B4B1A6C42F08052C2
:1032F0001A641B6C03F080530193019B174A1368F7
:1033000043F480331360FDF7A3FF0446134B5B685F
:1033100013F4803F08D1FDF79BFF001BB0F57A7FC7
:10332000F4D9032002B010BD0C4A136843F40033F3
:103330001360FDF78DFF0446084B5B6813F4003FF4
:1033400007D1FDF785FF001BB0F57A7FF4D9032084
:10335000E8E70020E6E700BF0038024000700040C8
:10336000002800F06C8270B582B0044603680F2B11
:103370002BD8236813F0010F41D06268B2F5803377
:1033800018BF0123002A08BF002313B1B2F5A02FF4
:1033900021D1A74B9B6803F00C03042B26D0A44B30
:1033A0009B6803F00C03082B1BD06368B3F5803FC8
:1033B00054D0002B68D19E4B1A6822F480321A60D8
:1033C0001A6822F480221A604DE04FF4B2719948D5
:1033D0000FF090FBCDE74FF4B57196480FF08AFBE4
:1033E000D7E7934B5B6813F4800FDED0904B1B68DC
:1033F00013F4003F03D06368002B00F0228223689F
:1034000013F0020F00F08980E368012B62D8236972
:103410001F2B65D8864B9B6813F00C0F6BD0844B29
:103420009B6803F00C03082B60D0E368002B00F0CE
:103430009B807F4A136843F001031360FDF708FF88
:1034400005467B4B1B6813F0020F40F08480FDF7AC
:10345000FFFE401B0228F4D90320F5E1744A1368EB
:1034600043F48033136063682BB3FDF7F1FE054628
:103470006F4B1B6813F4003FC1D1FDF7E9FE401B01
:103480006428F5D90320DFE1B3F5A02F09D0684BFC
:103490001A6822F480321A601A6822F480221A60B4
:1034A000E1E7634B1A6842F480221A601A6842F41A
:1034B00080321A60D7E7FDF7CBFE05465C4B1B68F0
:1034C00013F4003F9BD0FDF7C3FE401B6428F5D9E1
:1034D0000320B9E14FF4CE7156480FF00BFB96E78D
:1034E00040F29D1153480FF005FB93E7504B5B688A
:1034F00013F4800F99D14E4B1B6813F0020F04D0C8
:10350000E368012B01D001209EE1494A136823F0B2
:10351000F803216943EAC1031360236813F0080F1D
:1035200050D06369012B33D86369002B36D0404AF1
:10353000536F43F001035367FDF78AFE05463C4B8A
:103540005B6F13F0020F3DD1FDF782FE401B022896
:10355000F5D9032078E1364A136823F0F80321698E
:1035600043EAC1031360D8E7314A136823F001032B
:103570001360FDF76DFE05462D4B1B6813F0020F1F
:10358000CBD0FDF765FE401B0228F5D903205BE197
:1035900040F2DD1127480FF0ADFAC5E7244A536F1A
:1035A00023F001035367FDF753FE0546204B5B6F85
:1035B00013F0020F06D0FDF74BFE401B0228F5D991
:1035C000032041E1236813F0040F00F08C80A3680E
:1035D000052B18BF012B23D8154B1B6C13F0805FF4
:1035E00024D1134B1A6C42F080521A641B6C03F006
:1035F00080530193019B01250F4B1B6813F4807FBF
:103600001CD0A368012B2DD0002B43D1084B1A6F7F
:1036100022F001021A671A6F22F004021A6726E0EC
:1036200040F2072103480FF065FAD5E70025E3E7EC
:1036300000380240EC7C010800700040844A1368A6
:1036400043F480731360FDF703FE0646804B1B684E
:1036500013F4807FD5D1FDF7FBFD801B6428F5D9DD
:103660000320F1E07B4A136F43F001031367A36863
:1036700033B3FDF7EDFD0646764B1B6F13F0020FDB
:103680002FD1FDF7E5FD801B41F288339842F3D935
:103690000320D9E0052B09D06E4B1A6F22F00102EE
:1036A0001A671A6F22F004021A67E0E7694B1A6F73
:1036B00042F004021A671A6F42F001021A67D6E755
:1036C000FDF7C6FD0646634B1B6F13F0020F08D0D3
:1036D000FDF7BEFD801B41F288339842F3D90320E9
:1036E000B2E0002D44D1A369022B47D8A369002B77
:1036F00000F0A980574A926802F00C02082A00F0F4
:10370000A580022B40F08580E269B2F5800318BFE6
:103710000123002A08BF0023002B35D1236A023B76
:103720003D2B37D8636A323BB3F5BF7F38D8A36AE5
:10373000022B18BF042B03D0062B01D0082B35D148
:10374000E36A023B0D2B37D8424A136823F080739B
:103750001360FDF77DFD05463E4B1B6813F0007FAF
:1037600030D0FDF775FD401B0228F5D903206BE032
:10377000384A136C23F080531364B4E740F24B21B2
:1037800035480FF0B7F9B1E74FF4157132480FF033
:10379000B1F9C3E740F255212F480FF0ABF9C1E76B
:1037A00040F256212C480FF0A5F9C0E740F257210E
:1037B00029480FF09FF9C3E74FF4167126480FF020
:1037C00099F9C1E7E369226A1343626A43EA821303
:1037D000A26A5208013A43EA0243E26A43EA0263F8
:1037E00043F000531B4A5360136843F08073136027
:1037F000FDF72EFD0446174B1B6813F0007F06D122
:10380000FDF726FD001B0228F5D903201CE000204F
:103810001AE0104A136823F080731360FDF718FD57
:1038200004460C4B1B6813F0007F06D0FDF710FD1B
:10383000001B0228F5D9032006E0002004E0012047
:103840007047012000E0002002B070BD0120FBE7BE
:103850000070004000380240EC7C0108264B9B6859
:1038600003F00C03042B44D0082B01D023487047ED
:103870002DE9F04B204B5A6802F03F025B6813F4CD
:10388000800F13D01C4B5968C1F3881100231C48CA
:10389000A1FB0001FDF7F0FA174B5B68C3F301438E
:1038A00001335B00B0FBF3F0BDE8F08B124B5B68BB
:1038B000C3F388131E4600275C010025E41A65EB5C
:1038C0000705A90141EA9461A001001B61EB050114
:1038D000CB0043EA5073C400A01943EB07018B02ED
:1038E00043EA90538402204619460023FDF7C4FAA8
:1038F000D2E70348704700BF003802400024F400BC
:1039000040787D01002800F00B8170B504460D461B
:103910000368013B0E2B14D80F2D18D8824B1B685F
:1039200003F00F03AB4218D27F4A136823F00F0352
:103930002B431360136803F00F03AB420DD001203B
:1039400070BD40F2CA2179480FF0D4F8E4E740F2A4
:10395000CB2176480FF0CEF8E0E7236813F0020F92
:103960002ED013F0040F04D0714A936843F4E0534F
:103970009360236813F0080F04D06D4A936843F4F2
:1039800060439360A368B3F1800218BF0122002B4B
:1039900008BF00226AB1902B0BD0A02B09D0B02B0E
:1039A00007D0C02B05D0D02B03D0E02B01D0F02BBB
:1039B00032D15F4A936823F0F003A1680B43936010
:1039C000236813F0010F41D06368022B2AD8636883
:1039D000012B2DD0022B32D0554A126812F0020F63
:1039E00000F0A08052498A6822F0030213438B60E2
:1039F000FDF72EFC06464E4B9B6803F00C036268F5
:103A0000B3EB820F22D0FDF723FC801B41F28833F9
:103A10009842F0D9032093E740F2EF2143480FF09A
:103A200069F8C6E740F2F62140480FF063F8CEE7A8
:103A30003F4A126812F4003FD4D1012080E73C4A8B
:103A4000126812F0007FCDD1012079E7364B1B6858
:103A500003F00F03AB420CD9334A136823F00F0372
:103A60002B431360136803F00F03AB4201D0012016
:103A700066E7236813F0040F18D0E368B3F58052AB
:103A800018BF0122002B08BF002242B1B3F5A05F8E
:103A900005D0B3F5C05F02D0B3F5E05F34D1244A5E
:103AA000936823F4E053E1680B439360236813F0B9
:103AB000080F19D02369B3F5805218BF0122002BDB
:103AC00008BF002242B1B3F5A05F05D0B3F5C05FD7
:103AD00002D0B3F5E05F1DD1154A936823F460432B
:103AE000216943EAC1039360FFF7B8FE104B9B685E
:103AF000C3F303130F4AD35CD8400F4B1860002068
:103B0000FDF75EFB00201BE740F2333107480EF063
:103B1000F1FFC4E740F23A3104480EF0EBFFDBE777
:103B20000120704701200BE7003C0240EC7C0108BB
:103B30000038024034D2010888000020F0B583B07C
:103B400004460268934B1340CBB1236813F0010F76
:103B50001FD0626BB2F5000318BF0123002A08BF13
:103B600000238BB98C4B9A6822F400029A609A6801
:103B7000616B0A439A60636B73B300270AE0742198
:103B800086480EF0B7FFE0E77A2184480EF0B2FFD6
:103B9000E8E70027236813F4002F26D0E26BB2F584
:103BA000801318BF0123002A08BF002313B1B2F508
:103BB000001F13D1784AD2F88C3023F44013E16B04
:103BC0000B43C2F88C30E36BB3F5801F0BD0002B96
:103BD00000F0D680002509E00127DBE78A216F4845
:103BE0000EF088FFE6E70127F1E70025236813F4CC
:103BF000801F1CD0226CB2F5800318BF0123002A5D
:103C000008BF00231BB1B2F5000F40F0BB80624A31
:103C1000D2F88C3023F44003216C0B43C2F88C3073
:103C2000236CB3F5800F00F0B28003B9012523683F
:103C300013F0807F00D0012713F0200F00F0E38005
:103C4000236BB3F5807F18BFB3F5007F7AD0544A59
:103C5000934277D002F58032934273D002F58032DE
:103C600093426FD002F5803293426BD002F58032DE
:103C7000934267D002F58032934263D002F58032DE
:103C800093425FD002F5803293425BD002F58032DE
:103C9000934257D002F58032934253D002F58032DE
:103CA00093424FD002F5803293424BD002F58032DE
:103CB000934247D002F58032934243D002F58032DE
:103CC00093423FD002F5803293423BD002F58032DE
:103CD000934237D002F58032934233D002F58032DE
:103CE00093422FD002F5803293422BD002F58032DE
:103CF000934227D002F58032934223D002F58032DE
:103D000093421FD002F5803293421BD002F58032DD
:103D1000934217D002F58032934213D002F58032DD
:103D200093420FD002F5803293420BD002F58032DD
:103D3000934207D002F58032934203D0B92117484D
:103D40000EF0D8FE144B1A6C42F080521A641B6CB1
:103D500003F080530193019B124A136843F480736C
:103D60001360FDF775FA06460E4B1B6813F4807F4F
:103D70001AD1FDF76DFA801B6428F5D9032013E2F0
:103D8000012533E79E2105480EF0B4FE3FE70127E9
:103D90004BE700BFF9FFFF0100380240247D010816
:103DA0000003020000700040A94B1B6F13F4407326
:103DB00016D0226B02F440729A4211D0A44B1A6FB3
:103DC00022F44072196F41F480311967196F21F4A0
:103DD000803119671A671B6F13F0010F40F0E681FD
:103DE000236B03F44072B2F5407F00F0F181984AF2
:103DF000936823F4F813936095490B6F226BC2F319
:103E00000B0213430B67236813F0100F17D0A26B3C
:103E100012F17F4318BF0123002A08BF0023002BA3
:103E200040F0DF818A4BD3F88C2022F08072C3F8F7
:103E30008C20D3F88C20A16B0A43C3F88C20236814
:103E400013F4804F15D0626EB2F5803318BF012392
:103E5000002A08BF00231BB1B2F5003F40F0C68125
:103E60007B4AD2F8903023F44033616E0B43C2F8A2
:103E70009030236813F4004F15D0A26EB2F5802362
:103E800018BF0123002A08BF00231BB1B2F5002F81
:103E900040F0B1816E4AD2F8903023F44023A16EF5
:103EA0000B43C2F89030236813F4803F15D0E26EC4
:103EB000B2F5801318BF0123002A08BF00231BB1ED
:103EC000B2F5001F40F09D81614AD2F8903023F492
:103ED0004013E16E0B43C2F89030236813F4003FA7
:103EE00015D0226FB2F5800318BF0123002A08BF46
:103EF00000231BB1B2F5000F40F08981544AD2F87B
:103F0000903023F44003216F0B43C2F890302368B4
:103F100013F0400F10D0636C032B18BF012B02D994
:103F2000022B40F07A814A4AD2F8903023F0030302
:103F3000616C0B43C2F89030236813F0800F15D0EA
:103F4000A26C131F18BF0123002A08BF002323B14E
:103F50000C2A02D0082A40F066813D4AD2F89030FF
:103F600023F00C03A16C0B43C2F89030236813F4C8
:103F7000807F16D0E26CB2F1100318BF0123002A33
:103F800008BF002323B1302A02D0202A40F05181FB
:103F90002F4AD2F8903023F03003E16C0B43C2F883
:103FA0009030236813F4007F16D0226DB2F14003E5
:103FB00018BF0123002A08BF002323B1C02A02D062
:103FC000802A40F03C81224AD2F8903023F0C0038E
:103FD000216D0B43C2F89030236813F4806F18D022
:103FE000626DB2F5807318BF0123002A08BF002359
:103FF00033B1B2F5407F03D0B2F5007F40F02581A8
:10400000134AD2F8903023F44073616D0B43C2F829
:104010009030236813F4006F1CD0A26DB2F580635A
:1040200018BF0123002A08BF002333B1B2F5406F47
:1040300003D0B2F5006F40F00E81054AD2F89030FF
:1040400023F44063A16D0B43C2F8903002E000BF3F
:1040500000380240236813F4805F18D0E26DB2F597
:10406000805318BF0123002A08BF002333B1B2F5E3
:10407000405F03D0B2F5005F40F0F380964AD2F87B
:10408000903023F44053E16D0B43C2F89030236825
:1040900013F4005F18D0226EB2F5804318BF0123DD
:1040A000002A08BF002333B1B2F5404F03D0B2F568
:1040B000004F40F0DC80884AD2F8903023F440432F
:1040C000216E0B43C2F89030236813F4800F0FD099
:1040D000A36FB3F1806F18BF002B40F0CE807E4AF3
:1040E000D2F8903023F08063A16F0B43C2F8903078
:1040F000236813F4001F14D0E36FB3F1006F18BFEF
:10410000002B40F0C080744AD2F8903023F0006356
:10411000E16F0B43C2F89030E36FB3F1006F00F032
:10412000B880236813F0080F00D0012513F4802F06
:1041300018D0626F12F17F4318BF0123002A08BF15
:10414000002333B1B2F1007F03D0B2F1407F40F0E1
:10415000A280614AD2F8903023F04073616F0B4324
:10416000C2F89030236813F4000F11D0D4F88030D7
:10417000B3F1805F18BF002B40F09380564AD2F80D
:10418000903023F08053D4F880100B43C2F8903065
:10419000002F40F08C802368B3F1007F00F087800F
:1041A000002D40F06F81002003B0F0BDFDF750F806
:1041B0000646494B1B6F13F0020F7FF411AEFDF75B
:1041C00047F8801B41F288339842F2D90320EBE78D
:1041D0004148826822F4F812404919400A4382603B
:1041E0000AE6F3213E480EF085FC1BE6FD213C4823
:1041F0000EF080FC34E640F2071139480EF07AFCEC
:1042000048E640F2111136480EF074FC5CE640F2CC
:104210001B1133480EF06EFC70E640F22511304859
:104220000EF068FC7FE640F22F112D480EF062FC84
:1042300093E640F239112A480EF05CFCA8E640F201
:10424000431127480EF056FCBDE640F24D112448BC
:104250000EF050FCD4E640F2571121480EF04AFC13
:10426000EBE640F261111E480EF044FC06E740F216
:104270006B111B480EF03EFC1DE740F2751118480B
:104280000EF038FC2BE740F27F1115480EF032FC9F
:1042900039E7012545E740F2971111480EF02AFC55
:1042A00057E740F2A1110E480EF024FC66E70A4AD7
:1042B000136823F080631360FCF7CAFF0646064BC1
:1042C0001B6813F0006F0DD0FCF7C2FF801B642841
:1042D000F5D9032068E700BF00380240FFFCFF0F5C
:1042E000247D01086368323BB3F5BF7F00F29A80FA
:1042F000236813F0010F18D0636BB3B9A368023BB6
:10430000052B00F29580B64AD2F88430D2F884109A
:10431000606803F4403343EA801301F070610B439B
:10432000A16843EA0173C2F88430236813F4002FB4
:1043300003D0E26BB2F5801F06D013F4801F26D0A5
:10434000236CB3F5800F22D1E368023B0D2B75D8A7
:10435000636A013B1F2B77D8A14AD2F88430D2F888
:104360008410606803F4403343EA8013E06843EA52
:10437000006301F0E0410B43C2F88430D2F88C3086
:1043800023F01F03616A01390B43C2F88C302368A4
:1043900013F0807F14D02369032B5BD8904AD2F8A6
:1043A0008400D2F88410666823691B0443EA8613EC
:1043B00000F07060034301F0E0410B43C2F8843029
:1043C000236813F0007F18D02369032B48D8A36813
:1043D000023B052B4AD8E368023B0D2B4CD86268A0
:1043E00023691B0443EA8213E26843EA0263A2687A
:1043F00043EA02737A4AC2F88430794A136843F078
:1044000080631360FCF724FF0646754B1B6813F0AE
:10441000006F7FF4C5AEFCF71BFF801B6428F4D946
:104420000320C1E64FF4EE716E480EF063FB5FE7C8
:104430004FF4F1716B480EF05DFB64E74FF4F971D6
:1044400068480EF057FB83E74FF4FA7165480EF0A9
:1044500051FB81E740F2072162480EF04BFB9DE7DC
:1044600040F216215F480EF045FBB0E740F21721FD
:104470005C480EF03FFBAEE74FF4067159480EF072
:1044800039FBACE7564A136823F080531360FCF7FE
:10449000DFFE0546524B1B6813F0005F06D0FCF7A9
:1044A000D7FE401B6428F5D903207DE66369323BC3
:1044B000B3F5BF7F00F28180236813F4002F01D091
:1044C000E26B22B113F4801F25D0236C1BBBA369C0
:1044D000023B0D2B77D8A36A013B1F2B79D8404AAA
:1044E000D2F88830D2F88810606903F4403343EA88
:1044F0008013A06943EA006301F0E0410B43C2F876
:104500008830D2F88C3023F4F853A16A013943EA99
:104510000123C2F88C30236813F4001F03D0E36F2B
:10452000B3F1006F60D0236813F0080F31D0E36956
:10453000023B052B74D8E26AB2F5803318BF012321
:10454000002A08BF002353B1B2F5003F07D0B2F5EF
:10455000403F04D040F2722122480EF0CBFA204AAC
:10456000D2F88810D2F88830606903F4403343EA07
:10457000801301F070610B43E16943EA0173C2F8F3
:104580008830D2F88C3023F44033E16A0B43C2F810
:104590008C30134A136843F080531360FCF758FEC5
:1045A00004460F4B1B6813F0005F3FD1FCF750FE31
:1045B000001B6428F5D90320F6E540F2462109489E
:1045C0000EF098FA78E740F24D2106480EF092FA84
:1045D00081E740F24F2103480EF08CFA7FE700BFDD
:1045E00000380240247D0108236A032B12D8104AA8
:1045F000D2F88800D2F888106569236A1B0443EA60
:10460000851300F07060034301F0E0410B43C2F8F2
:10461000883088E740F2622106480EF06BFAE6E740
:1046200040F2712103480EF065FA84E70020BBE5F3
:1046300000380240247D0108564B0360564BD3F8E6
:104640008420C2F388124260D3F88420C2F301426E
:104650000261D3F88420C2F30362C260D3F88420DD
:10466000C2F302728260D3F88820C2F388124261DA
:10467000D3F88820C2F301420262D3F88820C2F343
:1046800003628261D3F88820C2F30272C261D3F858
:104690008C2002F01F024262D3F88C20C2F3042265
:1046A0008262D3F88C20C2F30142C262D3F88C201C
:1046B00002F44012C263D3F88C2002F44002026478
:1046C0009A6802F400024263D3F8902002F4403268
:1046D0004266D3F8902002F440228266D3F89020FC
:1046E00002F44012C266D3F8902002F4400202673E
:1046F000D3F8902002F003024264D3F8902002F035
:104700000C028264D3F8902002F03002C264D3F825
:10471000902002F0C0020265D3F8902002F44072AB
:104720004265D3F8902002F440628265D3F890206D
:1047300002F44052C265D3F8902002F4404202666F
:10474000D3F8902002F040724267D3F8902002F034
:1047500080628267D3F8902002F00062C267D3F8CB
:10476000902002F08052C0F88020996801F4F8117E
:104770001A6F02F440720A430263D3F88C3013F0CC
:10478000807F03D04FF0807383637047002383637F
:10479000704700BFF1FFFF000038024010B4B0F5D1
:1047A000002F07D00023B0F5801F65D018465DF8B4
:1047B000044B7047614BD3F88C3003F44013B3F5CE
:1047C000801F2ED0B3F5001F54D00BB10023EAE7B1
:1047D0005A4B5B6813F4800F1BD1584B5A6802F098
:1047E0003F02574BB3FBF2F3544AD2F88810C1F39F
:1047F0000361D2F88840C4F3881403FB04F3B3FBCD
:10480000F1F3D2F88C20C2F304220132B3FBF2F3AD
:10481000C9E74A4B5A6802F03F024A4BB3FBF2F336
:10482000E2E7464B5B6813F4800F1BD1434B5A6899
:1048300002F03F02424BB3FBF2F3404AD2F884103D
:10484000C1F30361D2F88440C4F3881403FB04F37A
:10485000B3FBF1F3D2F88C2002F01F020132B3FB5C
:10486000F2F3A0E7354B5A6802F03F02354BB3FB39
:10487000F2F3E2E7344B96E7304AD2F88C2002F4A8
:104880004002B2F5800F2DD0B2F5000F53D0002AB0
:104890008CD12A4B5B6813F4800F1BD1274B5A68CD
:1048A00002F03F02264BB3FBF2F3244AD2F8880011
:1048B000C0F30360D2F88810C1F3881103FB01F341
:1048C000B3FBF0F3D2F88C00C0F304200130B3FB4B
:1048D000F0F36BE7194B5A6802F03F02194BB3FB38
:1048E000F2F3E2E7154B5B6813F4800F1BD1134B17
:1048F0005A6802F03F02124BB3FBF2F30F4AD2F8B0
:104900008400C0F30360D2F88410C1F3881103FB64
:1049100001F3B3FBF0F3D2F88C0000F01F0001307C
:10492000B3FBF0F342E7054B5A6802F03F02054B38
:10493000B3FBF2F3E2E7044B38E700BF0038024074
:104940000024F40040787D010080BB0001290AD0DA
:104950000123026B082A08D04268023A012A0CD9C6
:1049600043F0040070470923F3E74268012A18BFA7
:10497000032AF1D143F01003EEE743F060007047E3
:104980000E4B1B680E4AA2FB03231B0B9B00016806
:104990000A6822F480320A605A1E3BB10368196823
:1049A000134611F4803FF7D100207047D0F88030D3
:1049B00043F04003C0F88030032070478800002097
:1049C0001BECCB95002800F07D8270B5044603688F
:1049D000B749B84A8B4218BF93420BD002F57872A0
:1049E000934207D02032934204D04FF4B871B248BA
:1049F0000EF080F8E369B149B14A8B4218BF934287
:104A00001BD04BF68032934217D04AF64442934271
:104A100013D0B3F5FA4F10D045F2226293420CD076
:104A2000B3F57A5F09D042F61132934205D0B3F55F
:104A3000FA5F02D0002B40F08F81226BB2F10803A5
:104A400018BF0123002A08BF002313B1042A40F035
:104A500089816368032B00F28B81636B402B18BF45
:104A6000602B08D0802B06D0A02B04D0C02B02D006
:104A7000E02B40F08381A26BB2F5807318BF012355
:104A8000002A08BF0023002B40F07E81E36B012B3E
:104A900000F28081A368032B00F282812269B2F5C3
:104AA000005318BF0123002A08BF0023002B40F049
:104AB0007D816269B2F5002318BF0123002A08BF77
:104AC0000023002B40F07881A369042B00F27A8147
:104AD000636AB3F5805F18BF002B40F07981A36A49
:104AE000B3F5004218BF0122002B08BF00224AB1D3
:104AF000B3F5404F06D0B3F5204F03D0B3F5604F68
:104B000040F06C81E26AB2F1100318BF0123002A61
:104B100008BF0023002B40F06781E368022B00F2FE
:104B20006981236C083BF82B00F26A81636C013BBE
:104B30007F2B00F26B81A26CB2F5803318BF01238A
:104B4000002A08BF0023002B40F06681E26CB2F51A
:104B5000003318BF0123002A08BF0023002B40F0B8
:104B60006181226DB2F5802318BF0123002A08BF9E
:104B70000023002B40F05C81636D182B00F25E81F6
:104B8000A26DB2F1400318BF0123002A08BF002321
:104B900013B1802A40F05881E36D013B0F2B00F2E6
:104BA0005981236EB3F5803F80F05A8194F87D30AF
:104BB000002B00F05B81022384F87D302046FFF754
:104BC000DFFEE368012B00F05981022B00F05481D5
:104BD0000022A368022B00F05381032B00F05381C5
:104BE000012B00F0558100252368314831498B4263
:104BF00018BF834240F04F81324B1A60E36923B300
:104C000023682B492B4A934218BF8B4200F0468100
:104C1000002023682C492D4A934218BF8B4200F094
:104C2000428100EB80004100E3695B02B1FBF3F1DC
:104C3000274BA3FB0123DB08236203EB8300420025
:104C40008A1A082A01D9013323626268022A14BF32
:104C500000230123002A08BF0123002B00F02A8132
:104C6000E36B012B00F024814FF4007621680B6880
:104C7000184A1A400A60226811686368206B03436F
:104C8000606B0343A06B034333432B43606A0343CE
:104C90002069034360690343206A43EA00530B43DE
:104CA0001360226851680C4B0B40536016E000BF44
:104CB0000458014024580140607D010800EE0200C4
:104CC0000077010000580140045C0140245C014071
:104CD000CDCCCCCC10C005FFF01FFFFF21684A6887
:104CE000A369A06A0343E06A034313434B6022684D
:104CF0009168754B0B40936020688268236C013B80
:104D0000216D0B43A16C0B43E16C0B43616C0139CA
:104D100043EA0123134383602268D36823F47D634D
:104D200023F00F031B041B0CD3602068C268636D63
:104D3000A16D0B43216E43EA0143E16D013943EA62
:104D400001231343C3600020C4F88000012384F8CA
:104D50007D3084F87C0070BD40F273115B480DF02B
:104D6000C9FE6AE64FF4BA7158480DF0C3FE70E60A
:104D700040F2751155480DF0BDFE6EE64FF4BB7163
:104D800052480DF0B7FE76E640F277114F480DF02D
:104D9000B1FE7BE64FF4BC714C480DF0ABFE79E6FA
:104DA00040F2791149480DF0A5FE77E64FF4BD7148
:104DB00046480DF09FFE7CE640F27B1143480DF023
:104DC00099FE81E64FF4BE7140480DF093FE7FE6F8
:104DD00040F27D113D480DF08DFE80E64FF4BF712D
:104DE0003A480DF087FE8DE640F27F1137480DF00E
:104DF00081FE92E64FF4C07134480DF07BFE90E6E0
:104E000040F2831131480DF075FE8FE64FF4C27108
:104E10002E480DF06FFE8EE640F285112B480DF006
:104E200069FE93E64FF4C37128480DF063FE98E6DF
:104E300040F2871125480DF05DFE9DE64FF4C571E7
:104E400022480DF057FE9BE640F28B111F480DF0F3
:104E500051FEA1E64FF4C6711C480DF04BFEA0E6D2
:104E600040F28D1119480DF045FE9FE684F87C3024
:104E700020460FF0B1F89EE62022AAE61022A8E60E
:104E80004FF40065B0E642F001024FF40065ABE676
:104E90004FF48065A8E60E4B1A60AFE64FF4002091
:104EA000FFF77CFCB5E64FF48010FFF777FCB8E61F
:104EB0000026DBE6E36B012B01D00026D6E64FF49B
:104EC0000076D3E6012070470080F8FF607D01087E
:104ED000005C014090F87C30012B0CD0012380F85D
:104EE0007C300268136823F400331360002380F8D9
:104EF0007C30184670470220704790F87C30012BB8
:104F000015D0012380F87C300268136843F4003325
:104F1000136003681A6812F4803F03D11A6842F4E0
:104F200080321A60002380F87C30184670470220D7
:104F3000704738B590F87C30012B4CD004460123E3
:104F400080F87C300268136823F400331360C06E6D
:104F500068B394F87D30DBB2122B17D00025206F98
:104F600020B194F87D30DBB2222B24D02046FFF70D
:104F700007FD2268536843F008035360012384F857
:104F80007D30002384F87C30284638BDFCF788FC4F
:104F900005460028E3D0E36E5B6D802B09D0D4F882
:104FA000803043F08003C4F880300125D7E7002526
:104FB000D5E70025D3E7FCF773FC0028D6D0236F94
:104FC0005B6D802BD2D0D4F8803043F08003C4F8DE
:104FD00080300125CAE70225D6E7000038B514461F
:104FE000B2FA82F25209002908BF0122002A4CD1EC
:104FF00090F87D30DBB2012B4AD190F87C30012B48
:1050000048D023460446012280F87C206166A0F83F
:105010006830A0F86A300023C0F88030122280F88F
:105020007D20C26E1C491164C26E1C49D163C26EE0
:105030001B49D164C26E13650268B0F868301C3237
:10504000416EC06EFCF7DCFB0546C8B923681A68E0
:1050500012F4803F03D11A6842F480321A600021B2
:105060002046FFF773FC2268136918431061226819
:10507000136843F400331360002384F87C3005E0A8
:10508000002384F87C30012500E00125284638BD46
:105090000225FBE70225F9E7E1500008A5500008CA
:1050A000EB50000810B5846B03681B6813F4807F15
:1050B00012D10021A4F86A102268136823F4003387
:1050C00013602046FFF742FC2268136923EA0000C0
:1050D0001061012384F87D3020460FF0A9F910BD3E
:1050E00008B5806B0FF0EAF908BD10B5846BD4F8F1
:1050F000803043F08003C4F88030E36E5B6D012B99
:1051000003D0236F5B6D012B0DD12268136823F44C
:10511000003313602046FFF733FC012384F87D3011
:105120000023A4F86A3020460FF00EFA10BD90F864
:105130007D00704770B582B004460023019300687B
:1051400002F0D2FD054610B1284602B070BD2068BD
:1051500002F0DDFD0646F8B10023A3642846C0B97D
:10516000019B5A1C01924FF6FF72934240D00021DE
:10517000206802F0E3FD00283DD10021206802F004
:10518000F5FD00283AD10021206802F077FBC00F1E
:10519000E5E700236364D7E70123A3640346E0B98E
:1051A000019B5A1C01924FF6FF72934229D00021B5
:1051B000206802F0C3FD05460028C5D14FF08041AC
:1051C000206802F0D3FD05460028BDD100212068EB
:1051D00002F054FB0346C00FE1E713F0804F03D108
:1051E000002363643546AFE7012363643546ABE7CC
:1051F0004FF08075A8E74FF08055A5E74FF0805538
:10520000A2E74FF080759FE72DE9F04188B0044692
:105210000F46FCF71DF80646002300930193082172
:10522000206802F0B7FC054618B1284608B0BDE872
:10523000F081216D0904206802F080FD05460028F8
:10524000F3D14FF0FF3302930823039330230493E9
:1052500002230593002306930123079302A92068E4
:1052600002F02AFC206802F0B3FD05460028DCD1DC
:10527000804605E0FBF7ECFF801BB0F1FF3F43D019
:105280002068426B40F22A431A420AD1436B13F45E
:10529000001FEFD002F08CFA4DF8280008F1010849
:1052A000E8E7436B13F0080F25D1436B13F0020FAF
:1052B00024D1436B13F0200F23D140F2FF538363BB
:1052C000009A130203F47F0343EA0263110A01F414
:1052D0007F410B4343EA12637B60019A130203F49C
:1052E0007F0343EA0263110A01F47F410B4343EA5F
:1052F00012633B6099E70825856396E7022585637D
:1053000093E72025856390E74FF000458DE710B5C2
:1053100082B00446002100910191006802F0AEFACB
:1053200010F0007F16D169462046FFF76DFF034657
:1053300090B9019B13F4802F11D0216D09042068CE
:1053400002F0FCFC034638B90221206802F028FD77
:10535000034601E04FF40063184602B010BD4FF061
:105360008063F9E710B582B00446002100910191F5
:10537000006802F083FA10F0007F16D169462046DB
:10538000FFF742FF034690B9019B13F4803F11D011
:10539000216D0904206802F0D1FC034638B90021D0
:1053A000206802F0FDFC034601E04FF4006318465C
:1053B00002B010BD4FF08063F9E770B581B10D46C2
:1053C0000446016D0904006802F05CFD064608B160
:1053D000304670BD0021206802F050FA2860F7E7DF
:1053E0004FF00066F4E72DE9F04387B004460D4620
:1053F00016461F46FBF72CFF6DB1804694F83430FB
:10540000DBB2012B0DD0A36B43F00053A36301204B
:1054100007B0BDE8F083A36B43F00063A3630120F2
:10542000F6E70023A363F319E26D93421BD803232D
:1054300084F8343023680022DA62636C012B00D0D8
:1054400076024FF40071206802F0A4FB034680B19D
:10545000226840F2FF519163A06B1843A0630120C2
:1054600084F83400D4E7A36B43F00073A3630120F6
:10547000CEE74FF0FF3300937B020193902302931A
:1054800002230393002304930123059369462068B4
:1054900002F012FB012F15D9022323633146206845
:1054A00002F0A8FB8146B9F1000F25D0236840F235
:1054B000FF529A63A36B43EA0903A363012084F8B4
:1054C0003400A5E7012323633146206802F07AFB0C
:1054D0008146E8E7206802F06BF945F826000136BE
:1054E000072EF7D920350E9B8BB1FBF7B1FEA0EB51
:1054F00008000E9B98420AD22068436B13F4957FF4
:1055000012D1436B13F4004FEDD04E46E8E7236809
:1055100040F2FF529A63A36B43F00043A36301235D
:1055200084F83430032073E7436B13F4807F07D093
:10553000012F05D9636C032B02D002F0A3FB50BBF3
:1055400023685A6B12F0080F30D15A6B12F0020F19
:1055500037D15A6B12F0200F3ED12068436B13F401
:10556000001F44D002F024F945F8040B0E9B33B120
:10557000FBF76EFEA0EB08000E9B9842EDD323686C
:1055800040F2FF529A63A36B43F00043A3630120F0
:1055900084F834003CE7236840F2FF519963A36B21
:1055A0000343A363012084F8340031E740F2FF5243
:1055B0009A63A36B43F00803A363012084F83400CB
:1055C00026E740F2FF529A63A36B43F00203A36302
:1055D000012084F834001BE740F2FF529A63A36B6A
:1055E00043F02003A363012084F8340010E740F265
:1055F000FF538363012384F83430002008E72DE94A
:10560000F04387B004460D4616461F46FBF720FEC2
:105610006DB1804694F83430DBB2012B0DD0A36B12
:1056200043F00053A363012007B0BDE8F083A36BF0
:1056300043F00063A3630120F6E70023A363F3199B
:10564000E26D934228D8032384F834302368002283
:10565000DA62636C012B00D076024FF4007120688F
:1056600002F098FA0346E8B9012F26D920232363D4
:105670003146206802F0EEFA8146B9F1000F24D0DD
:10568000236840F2FF529A63A36B43EA0903A363C2
:10569000012084F83400C7E7A36B43F00073A363D1
:1056A0000120C1E7226840F2FF519163A06B1843CB
:1056B000A063012084F83400B6E710232363314649
:1056C000206802F0AFFA8146D7E74FF0FF3300932E
:1056D0007B020193902302930023039304930123FD
:1056E00005936946206802F0E7F911E005EB8601B1
:1056F000206802F060F80136072EF7D920350E9B9E
:105700008BB1FBF7A5FDA0EB08000E9B98420AD2D7
:105710002068436B13F48D7F12D1436B13F4804FD9
:10572000EDD04E46E8E7236840F2FF529A63A36B40
:1057300043EA0903A363012384F83430032073E7A9
:10574000436B13F4807F07D0012F05D9636C032BC3
:1057500002D002F097FAB8B923685A6B12F0080F1A
:105760001DD15A6B12F0020F24D15A6B12F0100F98
:105770002BD040F2FF529A63A36B43F01003A36354
:10578000012084F834004FE7236840F2FF51996309
:10579000A36B0343A363012084F8340044E740F281
:1057A000FF529A63A36B43F00803A363012084F8BC
:1057B000340039E740F2FF529A63A36B43F00203CF
:1057C000A363012084F834002EE740F2FF529A636D
:1057D000012384F83430002026E730B4436E9A0F5A
:1057E0000A70C3F383624A70C3F301638B7090F84D
:1057F0006630CB7090F865300B7190F864304B7167
:1058000090F86B301B01CB80B0F86A30CC88C3F3C2
:1058100003122243CA8003F00F030B7290F8693021
:10582000DA094A72C3F380128A72C3F34012CA7251
:10583000C3F300120A7300224A73426C002A40F03C
:1058400092809B0203F440630B61836E0A699B00A4
:1058500003F47F7313430B61C36E0A6942EA9372C8
:105860000A61C3F3C2620A75C3F302634B75C26E69
:10587000C2F30743C2F342548C75C2F38242CA7525
:105880005B0003F006030B76C26EC2F307230C7EA7
:10589000C2F3C03222430A760A69013242650C7EA5
:1058A000023402FA04F444650A7AD5B20122AA400D
:1058B0008265520A02FB04F2C2654FF4007202666E
:1058C000C3F380124A765B0003F07E038B76C36ECF
:1058D0008A7EC3F3C01422438A7603F07F03CB761B
:1058E000036F1A0EDC0F0C77C3F341744C77C3F3CC
:1058F00082638B77930003F00C03CB77036FCA7F2F
:10590000C3F381542243CA77C3F3405281F8202065
:10591000002281F82120C3F3004381F82230036F75
:10592000C3F3C03481F82340C3F3803481F82440AA
:10593000C3F3403481F82540C3F3003481F8264096
:10594000C3F3812481F82740C3F3012381F8283071
:10595000036FC3F3460381F82930012381F82A300D
:10596000104630BC7047012A0CD0036840F2FF5249
:105970009A63836B43F080538363012280F8342061
:105980001046EEE7836E1B0403F47C130B6190F862
:105990006F200B6943EA02230B610A6990F86E30AD
:1059A00013430B6190F86D300A690132920242652F
:1059B000C2654FF400728265026681E770B590B0EF
:1059C00004460123ADF81230006801F0FDFE002806
:1059D0006AD0636C032B43D1636C032B5BD1636C84
:1059E000032B1DD0BDF8121021650904206802F0B8
:1059F0001CFA0546002859D10021206801F03EFF1D
:105A000060660421206801F039FFA0660821206843
:105A100001F034FFE0660C21206801F02FFF2067C1
:105A20000421206801F02AFF000DE06405A920464A
:105A3000FFF7D3FE226D12040023206802F03CF928
:105A4000054698BB234653F8106B93E807008DE892
:105A50000700043494E80E00304601F029FE25E0EA
:105A6000206802F0CDF9054600BB0021206801F056
:105A700005FF60670421206801F000FFA06708218E
:105A8000206801F0FBFEE0670C21206801F0F6FEC3
:105A9000C4F88000A0E70DF11201206802F0DAF9E5
:105AA000054600289BD001E04FF08065284610B0E5
:105AB00070BD10B58AB00446002304930593069385
:105AC00007930893762309930AAB13E907008DE83F
:105AD000070004AB0ECB206801F0EAFD2268536892
